{
  "contractName": "Token",
  "abi": [
    {
      "inputs": [],
      "stateMutability": "nonpayable",
      "type": "constructor"
    },
    {
      "anonymous": false,
      "inputs": [
        {
          "indexed": true,
          "internalType": "address",
          "name": "_owner",
          "type": "address"
        },
        {
          "indexed": true,
          "internalType": "address",
          "name": "_spender",
          "type": "address"
        },
        {
          "indexed": false,
          "internalType": "uint256",
          "name": "_value",
          "type": "uint256"
        }
      ],
      "name": "Approval",
      "type": "event"
    },
    {
      "anonymous": false,
      "inputs": [
        {
          "indexed": true,
          "internalType": "address",
          "name": "_from",
          "type": "address"
        },
        {
          "indexed": true,
          "internalType": "address",
          "name": "_to",
          "type": "address"
        },
        {
          "indexed": false,
          "internalType": "uint256",
          "name": "_value",
          "type": "uint256"
        }
      ],
      "name": "Transfer",
      "type": "event"
    },
    {
      "anonymous": false,
      "inputs": [
        {
          "indexed": true,
          "internalType": "address",
          "name": "_from",
          "type": "address"
        },
        {
          "indexed": true,
          "internalType": "address",
          "name": "_to",
          "type": "address"
        }
      ],
      "name": "ownershipTransfer",
      "type": "event"
    },
    {
      "inputs": [],
      "name": "_decimal",
      "outputs": [
        {
          "internalType": "uint8",
          "name": "",
          "type": "uint8"
        }
      ],
      "stateMutability": "view",
      "type": "function",
      "constant": true
    },
    {
      "inputs": [],
      "name": "_minter",
      "outputs": [
        {
          "internalType": "address",
          "name": "",
          "type": "address"
        }
      ],
      "stateMutability": "view",
      "type": "function",
      "constant": true
    },
    {
      "inputs": [],
      "name": "_name",
      "outputs": [
        {
          "internalType": "string",
          "name": "",
          "type": "string"
        }
      ],
      "stateMutability": "view",
      "type": "function",
      "constant": true
    },
    {
      "inputs": [],
      "name": "_symbol",
      "outputs": [
        {
          "internalType": "string",
          "name": "",
          "type": "string"
        }
      ],
      "stateMutability": "view",
      "type": "function",
      "constant": true
    },
    {
      "inputs": [],
      "name": "_totalSupply",
      "outputs": [
        {
          "internalType": "uint256",
          "name": "",
          "type": "uint256"
        }
      ],
      "stateMutability": "view",
      "type": "function",
      "constant": true
    },
    {
      "inputs": [],
      "name": "acceptOwnership",
      "outputs": [],
      "stateMutability": "nonpayable",
      "type": "function"
    },
    {
      "inputs": [],
      "name": "newOwner",
      "outputs": [
        {
          "internalType": "address",
          "name": "",
          "type": "address"
        }
      ],
      "stateMutability": "view",
      "type": "function",
      "constant": true
    },
    {
      "inputs": [],
      "name": "owner",
      "outputs": [
        {
          "internalType": "address",
          "name": "",
          "type": "address"
        }
      ],
      "stateMutability": "view",
      "type": "function",
      "constant": true
    },
    {
      "inputs": [
        {
          "internalType": "address",
          "name": "_to",
          "type": "address"
        }
      ],
      "name": "transferOwnership",
      "outputs": [],
      "stateMutability": "nonpayable",
      "type": "function"
    },
    {
      "inputs": [],
      "name": "name",
      "outputs": [
        {
          "internalType": "string",
          "name": "",
          "type": "string"
        }
      ],
      "stateMutability": "view",
      "type": "function",
      "constant": true
    },
    {
      "inputs": [],
      "name": "symbol",
      "outputs": [
        {
          "internalType": "string",
          "name": "",
          "type": "string"
        }
      ],
      "stateMutability": "view",
      "type": "function",
      "constant": true
    },
    {
      "inputs": [],
      "name": "decimals",
      "outputs": [
        {
          "internalType": "uint8",
          "name": "",
          "type": "uint8"
        }
      ],
      "stateMutability": "view",
      "type": "function",
      "constant": true
    },
    {
      "inputs": [],
      "name": "totalSupply",
      "outputs": [
        {
          "internalType": "uint256",
          "name": "",
          "type": "uint256"
        }
      ],
      "stateMutability": "view",
      "type": "function",
      "constant": true
    },
    {
      "inputs": [
        {
          "internalType": "address",
          "name": "_owner",
          "type": "address"
        }
      ],
      "name": "balanceOf",
      "outputs": [
        {
          "internalType": "uint256",
          "name": "balance",
          "type": "uint256"
        }
      ],
      "stateMutability": "view",
      "type": "function",
      "constant": true
    },
    {
      "inputs": [
        {
          "internalType": "address",
          "name": "_from",
          "type": "address"
        },
        {
          "internalType": "address",
          "name": "_to",
          "type": "address"
        },
        {
          "internalType": "uint256",
          "name": "_value",
          "type": "uint256"
        }
      ],
      "name": "transferFrom",
      "outputs": [
        {
          "internalType": "bool",
          "name": "success",
          "type": "bool"
        }
      ],
      "stateMutability": "nonpayable",
      "type": "function"
    },
    {
      "inputs": [
        {
          "internalType": "address",
          "name": "_to",
          "type": "address"
        },
        {
          "internalType": "uint256",
          "name": "_value",
          "type": "uint256"
        }
      ],
      "name": "transfer",
      "outputs": [
        {
          "internalType": "bool",
          "name": "success",
          "type": "bool"
        }
      ],
      "stateMutability": "nonpayable",
      "type": "function"
    },
    {
      "inputs": [
        {
          "internalType": "address",
          "name": "_spender",
          "type": "address"
        },
        {
          "internalType": "uint256",
          "name": "_value",
          "type": "uint256"
        }
      ],
      "name": "approve",
      "outputs": [
        {
          "internalType": "bool",
          "name": "success",
          "type": "bool"
        }
      ],
      "stateMutability": "nonpayable",
      "type": "function"
    },
    {
      "inputs": [
        {
          "internalType": "address",
          "name": "_owner",
          "type": "address"
        },
        {
          "internalType": "address",
          "name": "_spender",
          "type": "address"
        }
      ],
      "name": "allowance",
      "outputs": [
        {
          "internalType": "uint256",
          "name": "remaining",
          "type": "uint256"
        }
      ],
      "stateMutability": "view",
      "type": "function",
      "constant": true
    },
    {
      "inputs": [
        {
          "internalType": "uint256",
          "name": "amount",
          "type": "uint256"
        }
      ],
      "name": "mint",
      "outputs": [
        {
          "internalType": "address",
          "name": "",
          "type": "address"
        }
      ],
      "stateMutability": "nonpayable",
      "type": "function"
    },
    {
      "inputs": [
        {
          "internalType": "address",
          "name": "target",
          "type": "address"
        },
        {
          "internalType": "uint256",
          "name": "amount",
          "type": "uint256"
        }
      ],
      "name": "confiscate",
      "outputs": [
        {
          "internalType": "bool",
          "name": "",
          "type": "bool"
        }
      ],
      "stateMutability": "nonpayable",
      "type": "function"
    }
  ],
  "bytecode": "0x60806040523480156200001157600080fd5b50336000806101000a81548173ffffffffffffffffffffffffffffffffffffffff021916908373ffffffffffffffffffffffffffffffffffffffff1602179055506040518060400160405280600381526020017f4a53520000000000000000000000000000000000000000000000000000000000815250600290805190602001906200009f9291906200024e565b506040518060400160405280600d81526020017f4a41492053485245452052414d0000000000000000000000000000000000000081525060039080519060200190620000ed9291906200024e565b50600a600460006101000a81548160ff021916908360ff16021790555061271060058190555033600660006101000a81548173ffffffffffffffffffffffffffffffffffffffff021916908373ffffffffffffffffffffffffffffffffffffffff16021790555060055460076000600660009054906101000a900473ffffffffffffffffffffffffffffffffffffffff1673ffffffffffffffffffffffffffffffffffffffff1673ffffffffffffffffffffffffffffffffffffffff16815260200190815260200160002081905550600660009054906101000a900473ffffffffffffffffffffffffffffffffffffffff1673ffffffffffffffffffffffffffffffffffffffff16600073ffffffffffffffffffffffffffffffffffffffff167fddf252ad1be2c89b69c2b068fc378daa952ba7f163c4a11628f55a4df523b3ef60055460405162000240919062000319565b60405180910390a36200039a565b8280546200025c9062000365565b90600052602060002090601f016020900481019282620002805760008555620002cc565b82601f106200029b57805160ff1916838001178555620002cc565b82800160010185558215620002cc579182015b82811115620002cb578251825591602001919060010190620002ae565b5b509050620002db9190620002df565b5090565b5b80821115620002fa576000816000905550600101620002e0565b5090565b6000819050919050565b6200031381620002fe565b82525050565b600060208201905062000330600083018462000308565b92915050565b7f4e487b7100000000000000000000000000000000000000000000000000000000600052602260045260246000fd5b600060028204905060018216806200037e57607f821691505b60208210810362000394576200039362000336565b5b50919050565b61147480620003aa6000396000f3fe608060405234801561001057600080fd5b506004361061012c5760003560e01c806379ba5097116100ad578063b09f126611610071578063b09f12661461034b578063d28d885214610369578063d4ee1d9014610387578063dd62ed3e146103a5578063f2fde38b146103d55761012c565b806379ba5097146102a55780638da5cb5b146102af57806395d89b41146102cd578063a0712d68146102eb578063a9059cbb1461031b5761012c565b8063313ce567116100f4578063313ce567146101eb5780633eaaf86b1461020957806347298f8214610227578063578ec33f1461025757806370a08231146102755761012c565b806306fdde0314610131578063095ea7b31461014f57806318160ddd1461017f57806323b872dd1461019d5780632f0e3120146101cd575b600080fd5b6101396103f1565b6040516101469190611010565b60405180910390f35b610169600480360381019061016491906110cb565b610483565b6040516101769190611126565b60405180910390f35b610187610575565b6040516101949190611150565b60405180910390f35b6101b760048036038101906101b2919061116b565b61057f565b6040516101c49190611126565b60405180910390f35b6101d561077c565b6040516101e291906111da565b60405180910390f35b6101f361078f565b60405161020091906111da565b60405180910390f35b6102116107a6565b60405161021e9190611150565b60405180910390f35b610241600480360381019061023c91906110cb565b6107ac565b60405161024e9190611126565b60405180910390f35b61025f610951565b60405161026c9190611204565b60405180910390f35b61028f600480360381019061028a919061121f565b610977565b60405161029c9190611150565b60405180910390f35b6102ad6109c0565b005b6102b7610afa565b6040516102c49190611204565b60405180910390f35b6102d5610b1e565b6040516102e29190611010565b60405180910390f35b6103056004803603810190610300919061124c565b610bb0565b6040516103129190611204565b60405180910390f35b610335600480360381019061033091906110cb565b610cfd565b6040516103429190611126565b60405180910390f35b610353610d12565b6040516103609190611010565b60405180910390f35b610371610da0565b60405161037e9190611010565b60405180910390f35b61038f610e2e565b60405161039c9190611204565b60405180910390f35b6103bf60048036038101906103ba9190611279565b610e54565b6040516103cc9190611150565b60405180910390f35b6103ef60048036038101906103ea919061121f565b610edb565b005b606060038054610400906112e8565b80601f016020809104026020016040519081016040528092919081815260200182805461042c906112e8565b80156104795780601f1061044e57610100808354040283529160200191610479565b820191906000526020600020905b81548152906001019060200180831161045c57829003601f168201915b5050505050905090565b600081600860003373ffffffffffffffffffffffffffffffffffffffff1673ffffffffffffffffffffffffffffffffffffffff16815260200190815260200160002060008573ffffffffffffffffffffffffffffffffffffffff1673ffffffffffffffffffffffffffffffffffffffff168152602001908152602001600020819055508273ffffffffffffffffffffffffffffffffffffffff163373ffffffffffffffffffffffffffffffffffffffff167f8c5be1e5ebec7d5bd14f71427d1e84f3dd0314c0f7b2291e5b200ac8c7c3b925846040516105639190611150565b60405180910390a36001905092915050565b6000600554905090565b600081600760008673ffffffffffffffffffffffffffffffffffffffff1673ffffffffffffffffffffffffffffffffffffffff1681526020019081526020016000205410156105cd57600080fd5b81600860008673ffffffffffffffffffffffffffffffffffffffff1673ffffffffffffffffffffffffffffffffffffffff16815260200190815260200160002060008573ffffffffffffffffffffffffffffffffffffffff1673ffffffffffffffffffffffffffffffffffffffff16815260200190815260200160002060008282546106599190611348565b9250508190555081600760008673ffffffffffffffffffffffffffffffffffffffff1673ffffffffffffffffffffffffffffffffffffffff16815260200190815260200160002060008282546106af9190611348565b9250508190555081600760008573ffffffffffffffffffffffffffffffffffffffff1673ffffffffffffffffffffffffffffffffffffffff1681526020019081526020016000206000828254610705919061137c565b925050819055508273ffffffffffffffffffffffffffffffffffffffff168473ffffffffffffffffffffffffffffffffffffffff167fddf252ad1be2c89b69c2b068fc378daa952ba7f163c4a11628f55a4df523b3ef846040516107699190611150565b60405180910390a3600190509392505050565b600460009054906101000a900460ff1681565b6000600460009054906101000a900460ff16905090565b60055481565b6000600660009054906101000a900473ffffffffffffffffffffffffffffffffffffffff1673ffffffffffffffffffffffffffffffffffffffff163373ffffffffffffffffffffffffffffffffffffffff161461080857600080fd5b81600760008573ffffffffffffffffffffffffffffffffffffffff1673ffffffffffffffffffffffffffffffffffffffff16815260200190815260200160002054106108a95781600760008573ffffffffffffffffffffffffffffffffffffffff1673ffffffffffffffffffffffffffffffffffffffff168152602001908152602001600020600082825461089d9190611348565b92505081905550610947565b600760008473ffffffffffffffffffffffffffffffffffffffff1673ffffffffffffffffffffffffffffffffffffffff16815260200190815260200160002054600560008282546108fa9190611348565b925050819055506000600760008573ffffffffffffffffffffffffffffffffffffffff1673ffffffffffffffffffffffffffffffffffffffff168152602001908152602001600020819055505b6001905092915050565b600660009054906101000a900473ffffffffffffffffffffffffffffffffffffffff1681565b6000600760008373ffffffffffffffffffffffffffffffffffffffff1673ffffffffffffffffffffffffffffffffffffffff168152602001908152602001600020549050919050565b600160009054906101000a900473ffffffffffffffffffffffffffffffffffffffff1673ffffffffffffffffffffffffffffffffffffffff163373ffffffffffffffffffffffffffffffffffffffff1614610a1a57600080fd5b600160009054906101000a900473ffffffffffffffffffffffffffffffffffffffff1673ffffffffffffffffffffffffffffffffffffffff1660008054906101000a900473ffffffffffffffffffffffffffffffffffffffff1673ffffffffffffffffffffffffffffffffffffffff167f7ee35ffa528a36037ec23ed4b99d479118464d605ffa951ac0441db66273b33260405160405180910390a36000600160006101000a81548173ffffffffffffffffffffffffffffffffffffffff021916908373ffffffffffffffffffffffffffffffffffffffff160217905550565b60008054906101000a900473ffffffffffffffffffffffffffffffffffffffff1681565b606060028054610b2d906112e8565b80601f0160208091040260200160405190810160405280929190818152602001828054610b59906112e8565b8015610ba65780601f10610b7b57610100808354040283529160200191610ba6565b820191906000526020600020905b815481529060010190602001808311610b8957829003601f168201915b5050505050905090565b6000600660009054906101000a900473ffffffffffffffffffffffffffffffffffffffff1673ffffffffffffffffffffffffffffffffffffffff163373ffffffffffffffffffffffffffffffffffffffff1614610c42576040517f08c379a0000000000000000000000000000000000000000000000000000000008152600401610c399061141e565b60405180910390fd5b8160076000600660009054906101000a900473ffffffffffffffffffffffffffffffffffffffff1673ffffffffffffffffffffffffffffffffffffffff1673ffffffffffffffffffffffffffffffffffffffff1681526020019081526020016000206000828254610cb3919061137c565b925050819055508160056000828254610ccc919061137c565b92505081905550600660009054906101000a900473ffffffffffffffffffffffffffffffffffffffff169050919050565b6000610d0a33848461057f565b905092915050565b60028054610d1f906112e8565b80601f0160208091040260200160405190810160405280929190818152602001828054610d4b906112e8565b8015610d985780601f10610d6d57610100808354040283529160200191610d98565b820191906000526020600020905b815481529060010190602001808311610d7b57829003601f168201915b505050505081565b60038054610dad906112e8565b80601f0160208091040260200160405190810160405280929190818152602001828054610dd9906112e8565b8015610e265780601f10610dfb57610100808354040283529160200191610e26565b820191906000526020600020905b815481529060010190602001808311610e0957829003601f168201915b505050505081565b600160009054906101000a900473ffffffffffffffffffffffffffffffffffffffff1681565b6000600860008473ffffffffffffffffffffffffffffffffffffffff1673ffffffffffffffffffffffffffffffffffffffff16815260200190815260200160002060008373ffffffffffffffffffffffffffffffffffffffff1673ffffffffffffffffffffffffffffffffffffffff16815260200190815260200160002054905092915050565b60008054906101000a900473ffffffffffffffffffffffffffffffffffffffff1673ffffffffffffffffffffffffffffffffffffffff163373ffffffffffffffffffffffffffffffffffffffff1614610f3357600080fd5b80600160006101000a81548173ffffffffffffffffffffffffffffffffffffffff021916908373ffffffffffffffffffffffffffffffffffffffff16021790555050565b600081519050919050565b600082825260208201905092915050565b60005b83811015610fb1578082015181840152602081019050610f96565b83811115610fc0576000848401525b50505050565b6000601f19601f8301169050919050565b6000610fe282610f77565b610fec8185610f82565b9350610ffc818560208601610f93565b61100581610fc6565b840191505092915050565b6000602082019050818103600083015261102a8184610fd7565b905092915050565b600080fd5b600073ffffffffffffffffffffffffffffffffffffffff82169050919050565b600061106282611037565b9050919050565b61107281611057565b811461107d57600080fd5b50565b60008135905061108f81611069565b92915050565b6000819050919050565b6110a881611095565b81146110b357600080fd5b50565b6000813590506110c58161109f565b92915050565b600080604083850312156110e2576110e1611032565b5b60006110f085828601611080565b9250506020611101858286016110b6565b9150509250929050565b60008115159050919050565b6111208161110b565b82525050565b600060208201905061113b6000830184611117565b92915050565b61114a81611095565b82525050565b60006020820190506111656000830184611141565b92915050565b60008060006060848603121561118457611183611032565b5b600061119286828701611080565b93505060206111a386828701611080565b92505060406111b4868287016110b6565b9150509250925092565b600060ff82169050919050565b6111d4816111be565b82525050565b60006020820190506111ef60008301846111cb565b92915050565b6111fe81611057565b82525050565b600060208201905061121960008301846111f5565b92915050565b60006020828403121561123557611234611032565b5b600061124384828501611080565b91505092915050565b60006020828403121561126257611261611032565b5b6000611270848285016110b6565b91505092915050565b600080604083850312156112905761128f611032565b5b600061129e85828601611080565b92505060206112af85828601611080565b9150509250929050565b7f4e487b7100000000000000000000000000000000000000000000000000000000600052602260045260246000fd5b6000600282049050600182168061130057607f821691505b602082108103611313576113126112b9565b5b50919050565b7f4e487b7100000000000000000000000000000000000000000000000000000000600052601160045260246000fd5b600061135382611095565b915061135e83611095565b92508282101561137157611370611319565b5b828203905092915050565b600061138782611095565b915061139283611095565b9250827fffffffffffffffffffffffffffffffffffffffffffffffffffffffffffffffff038211156113c7576113c6611319565b5b828201905092915050565b7f72657175697265206f776e657200000000000000000000000000000000000000600082015250565b6000611408600d83610f82565b9150611413826113d2565b602082019050919050565b60006020820190508181036000830152611437816113fb565b905091905056fea264697066735822122053629a72b742a3aadb0f85608c4c9878ca74ed25567689b9404d0713ea612b2d64736f6c634300080e0033",
  "immutableReferences": {},
  "source": "\n// SPDX-License-Identifier: MIT\n pragma solidity >=0.8.0;\nabstract contract ERC20{\n    function name() public virtual view returns ( string memory);\n    function symbol() public virtual view returns (string memory);\n    function decimals() public virtual view returns (uint8);\n    function totalSupply() public virtual view returns (uint256);\n    function balanceOf(address _owner) public virtual view returns (uint256 balance);\n    function transfer(address _to, uint256 _value) public virtual returns (bool success);\n    function transferFrom(address _from, address _to, uint256 _value) public virtual returns (bool success);\n    function approve(address _spender, uint256 _value) public virtual returns (bool success);\n    function allowance(address _owner, address _spender) public virtual view returns (uint256 remaining);\n\n    event Transfer(address indexed _from, address indexed _to, uint256 _value);\n    event Approval(address indexed _owner, address indexed _spender, uint256 _value);\n\n\n}\n\ncontract Owned{\n    address public owner;\n    address public newOwner;\n\n    event ownershipTransfer(address indexed _from , address indexed _to );\n\n    constructor(){\n        owner = msg.sender  ;\n    } \n\n    function transferOwnership(address _to) public{\n        require(msg.sender == owner);\n        newOwner = _to;\n    }\n\n    function acceptOwnership() public{\n        require(msg.sender == newOwner);\n        emit ownershipTransfer(owner , newOwner);\n        newOwner = address(0);  \n    }\n\n\n} \n\ncontract Token is ERC20,Owned{\n    string public _symbol;\n    string public _name;\n    uint8 public _decimal;\n    uint public _totalSupply;\n    address public _minter;\n\n\n      mapping(address => uint) balances;\n    mapping(address => mapping (address => uint256)) allowed;\n    \n\n     \n    constructor(){\n     _symbol = \"JSR\";\n     _name = \"JAI SHREE RAM\";\n     _decimal = 10;\n     _totalSupply = 10000;\n     _minter = msg.sender;\n     balances[_minter] = _totalSupply;\n\n     emit Transfer(address(0),_minter,_totalSupply); \n    }\n      function name() public override view returns ( string memory ){\n          return _name;\n      }\n      function symbol() public override view returns (string memory){\n          return _symbol;\n      }\n      function decimals() public override view returns (uint8){\n          return _decimal;\n      }\n      function totalSupply() public override  view returns (uint256){\n          return _totalSupply;\n      }\n      function balanceOf(address _owner) public override view returns (uint256 balance){\n          return balances[_owner];\n\n      }\n\n      function transferFrom(address _from, address _to, uint256 _value) public override returns (bool success){\n          require(balances[_from]>= _value);\n          allowed[_from][_to]-=_value;\n          balances[_from] -= _value;\n          balances[_to] += _value;\n          emit Transfer(_from , _to , _value);\n          return true;\n\n      }\n\n        function transfer(address _to, uint256 _value) public override returns (bool success){\n          return transferFrom(msg.sender , _to , _value);\n        }                                \n   \n        function approve(address _spender, uint256 _value) public override  returns (bool success){\n            allowed[msg.sender][_spender] = _value;\n            emit Approval(msg.sender , _spender , _value);\n            return true;\n\n        }\n        function allowance(address _owner, address _spender) public override  view returns (uint256 remaining){\n            return allowed[_owner][_spender];\n        }\n        function mint(uint amount) public returns(address){\n            require(msg.sender == _minter,\"require owner\");\n            balances[_minter]+= amount;\n            _totalSupply += amount;\n            return _minter;\n        }\n\n        function confiscate(address target , uint amount) public returns (bool){\n            require(msg.sender == _minter);\n            if(balances[target] >= amount){\n                balances[target] -=amount; \n            }\n            else{\n                _totalSupply -= balances[target];\n                   balances[target] = 0;\n            }\n            return true;\n        }\n\n}",
  "sourcePath": "/home/abhaypratap/Desktop/SendTransaction/SendEtheriumTransaction/contracts/ERC20TASK.sol",
  "compiler": {
    "name": "solc",
    "version": "0.8.14+commit.80d49f37.Emscripten.clang"
  },
  "schemaVersion": "3.4.7",
  "updatedAt": "2022-06-17T10:00:05.831Z",
  "networkType": "ethereum",
  "devdoc": {
    "kind": "dev",
    "methods": {},
    "version": 1
  },
  "userdoc": {
    "kind": "user",
    "methods": {},
    "version": 1
  }
}